:03000000020CC629
:0C0CC600787FE4F6D8FD7581420208003A
:0A0CDE00E4FFFE3001042000010FC6
:010CE80022E9
:0A0CE900E4FFFE2001043000010FBB
:010CF30022DE
:100C2B007F38120CF47F0C120CF47F06120CF47F3D
:090C3B0001120CF47F80020CF49C
:0D0BBB00C2918F807F64120BC8D2927F2CF4
:100BC800AD071FED600A7E64AD061EED60F280F889
:010BD80022FA
:0A0CF400C292C290120BBBC2922202
:060C990014F9120A48FFE5
:0A0C9F00C292D290120BBBC2922247
:060A61008B398A3A893B43
:100A67008B3E8A3F8940120C71C3EF9410EE9400BD
:100A770050357F80120CF4E4F53CF53DAB39AA3ACA
:100A8700A93B120C71C3E53D9FE53C9E507BAB3EF5
:100A97000540E540AA3F7002053F120C99053DE568
:100AA7003D70D9053C80D57F80120CF4E4F53CF508
:100AB7003DAB3E0540E540AA3F7002053F120C9949
:100AC700053DE53D7002053CC39410E53C64809408
:100AD7008040DE7FC0120CF4753C00753D10AB39C9
:100AE700AA3AA93B120C71C3E53D9FE53C9E5019FC
:100AF700AB3E0540E540AA3F7002053F120C990541
:090B07003DE53D70D9053C80D5A7
:010B100022C2
:03000300020B9B52
:100B9B00C0E0C0D075D000C005C006C00720B205AC
:100BAB007F01120CF4D007D006D005D0D0D0E032A4
:0C0CD20020003130730035730031300019
:100800007521FF75220C7523D27524FF75250C7593
:1008100026D47527FF75280C7529D8752AFF752BE6
:100820000C752CDBE4F530F531753201F533753498
:1008300001F535F536F53775380AD2A0D2A1D2A226
:10084000D2A37F12120C5C7F0A120CA9D2B6120C32
:100850002B120C11120D0D120D14AF35EF3395E064
:10086000FED3EF9538E5376480F8EE648098400554
:1008700030A202C2A2AF36EF3395E0FED3EF953837
:10088000E5376480F8EE648098400530A302C2A387
:1008900030A03130A12EA2969200E531453224FFDE
:1008A0009201120CDEEF4E6004C2A08060A297920B
:1008B00000E533453424FF9201120CDEEF4E604D0B
:1008C000C2A1804920A02030A11DA2979200E5334B
:1008D000453424FF9201120CE9EF4E6030D2A0059E
:1008E00035C2AC7F30802130A02320A120A2969277
:1008F00000E531453224FF9201120CE9EF4E600D04
:10090000D2A10536C2AC7F31120CFED2ACA296E465
:1009100033753100F532A297E433753300F5342096
:100920008D0302085AC28D758CDCE4F58A0530C34C
:10093000E530648094E4500302085A7B007A007921
:10094000358B2D8A2E892F120A61E4F535F5300298
:02095000085A43
:020D19000000D8
:0C0CB900E4FFE4FE0EBE21FC0FBF0AF6B3
:010CC500220C
:020CA900AD0795
:0D0CAB00E4FCECC39D5006120CB90C80F562
:010CB8002219
:050BF700120BFCAF052C
:100BFC00C2B7E4FEEF3392B5C2B7D2B7EF25E0FF30
:040C0C000EBE08F020
:010C100022C1
:100C4400E4FFD2B7FED2B7C2B7EF25E0FFA293E428
:070C54003342070EBE08EE5B
:010C5B002276
:100C5C00AD07C2B47F06120BFCD2B4C2B47F011232
:050C6C000BF7D2B422D9
:100BD900AC07C2B7C2B47F06120BFCD2B4C2B47F51
:0E0BE90002120BF7AF04120BFCD2B4C2B722FB
:020C8600AD07B8
:100C8800C2B7C2B47F03120BF7120C44D2B4C2B776
:010C98002239
:070D0600D2B4C2B4D2B42242
:080CFE008F993099FDC2992283
:03002300020B11BC
:100B1100C0E0C0F0C083C082C0D075D000C000C0AA
:0D0B210001C002C003C004C005C006C0072B
:100B2E0078417C007D007BFF7A0D79197E007F0273
:100B3E00120A22E4FBFA30980874412BF8A699C2E7
:100B4E0098309902C29974412BF8E6FFEB240AFD06
:100B5E00120BD97F0A120CA9EB240AFF120C861273
:100B6E000CFE0BBB00010AEB64024A70C9309902FD
:020B7E00C2991A
:100B8000D007D006D005D004D003D002D001D000C9
:0B0B9000D0D0D082D083D0F0D0E03273
:100C1100758921758CDCE4F58AD28C758DFD758B17
:0A0C2100FD7598505387EFD28E2224
:070D0D00D2AFD2A8D2882268
:050D1400D2AFD2AC22B9
:10095200E709F608DFFA8046E709F208DFFA803E87
:1009620088828C83E709F0A3DFFA8032E309F60874
:10097200DFFA8078E309F208DFFA807088828C83DC
:10098200E309F0A3DFFA806489828A83E0A3F60890
:10099200DFFA805889828A83E0A3F208DFFA804C6A
:1009A20080D280FA80C680D4806980F28033801041
:1009B20080A680EA809A80A880DA80E280CA8033AA
:1009C20089828A83ECFAE493A3C8C582C8CCC58322
:1009D200CCF0A3C8C582C8CCC583CCDFE9DEE780F2
:1009E2000D89828A83E493A3F608DFF9ECFAA9F071
:1009F200EDFB2289828A83ECFAE0A3C8C582C8CCC7
:100A0200C583CCF0A3C8C582C8CCC583CCDFEADEDF
:100A1200E880DB89828A83E493A3F208DFF980CC41
:100A220088F0EF60010E4E60C388F0ED2402B4043A
:100A32000050B9F582EB2402B4040050AF232345E1
:060A420082239009A2735B
:100A4800BB010689828A83E0225002E722BBFE02AC
:090A5800E32289828A83E49322DF
:100C7100E4FFFE120A48600C0FEF70010E09E970E3
:050C8100F20A80EF22E1
:00000001FF
