:03000000020DF7F7
:0C0DF700787FE4F6D8FD7581450209F80C
:0A0E0F00E4FFFE3001042000010F93
:010E190022B6
:0A0E1A00E4FFFE2001043000010F88
:010E240022AB
:080E2F008E178F18E4FEFF226C
:020E520020007E
:100D5C007F38120E257F0C120E257F06120E257F72
:090D6C0001120E257F80020E2504
:0D0CEC00C2918F807F64120CF9D2927F2C90
:100CF900AD071FED600A7E64AD061EED60F280F857
:010D090022C7
:0A0E2500C292C290120CECC292229D
:060DCA0014F91208F6FF07
:0A0DD000C292D290120CECC29222E3
:060B58008B398A3A893B4B
:100B5E008B3E8A3F8940120DA2C3EF9410EE940093
:100B6E0050357F80120E25E4F53CF53DAB39AA3A9F
:100B7E00A93B120DA2C3E53D9FE53C9E507BAB3ECB
:100B8E000540E540AA3F7002053F120DCA053DE53E
:100B9E003D70D9053C80D57F80120E25E4F53CF5DD
:100BAE003DAB3E0540E540AA3F7002053F120DCA1F
:100BBE00053DE53D7002053CC39410E53C64809410
:100BCE008040DE7FC0120E25753C00753D10AB399E
:100BDE00AA3AA93B120DA2C3E53D9FE53C9E5019D2
:100BEE00AB3E0540E540AA3F7002053F120DCA0517
:090BFE003DE53D70D9053C80D5B0
:010C070022CA
:060C6F008B088A09890AC6
:100C75007514FF75150E751652A813AC12AD111229
:100C850009DBA813AC12AD11AB14AA15A9161209EC
:100C9500DBA813AC12AD11AB0BAA0CA90D1209DB25
:100CA500A813AC12AD11AB14AA15A9161209DBA82D
:100CB50013AC12AD11AB0EAA0FA9101209DBAB11C3
:070CC500AA12A913020B584B
:070E3F00D2AFD2A8D2882235
:03000300020CCC20
:100CCC00C0E0C0D075D000C005C006C00720B2057A
:100CDC007F01120E25D007D006D005D0D0D0E0323F
:03000300020E5694
:010E56003269
:0C0E0300200031307300357300313000E6
:1009F8007521FF75220E7523037524FF75250E7565
:100A080026057527FF75280E752909752AFF752B88
:100A18000E752C0CE4F530F531753201F53375346B
:100A280001F535F536F53775380AD2A0D2A1D2A22C
:100A3800D2A37F12120D8D7F0A120DDAD2B6120DD3
:100A48005C120D42120E3F120E4DAF35EF3395E09A
:100A5800FED3EF9538E5376480F8EE64809840055A
:100A680030A202C2A2AF36EF3395E0FED3EF95383D
:100A7800E5376480F8EE648098400530A302C2A38D
:100A880030A03130A12EA2969200E531453224FFE4
:100A98009201120E0FEF4E6004C2A0806EA29792D0
:100AA80000E533453424FF9201120E0FEF4E605BD0
:100AB800C2A1805720A02030A11DA2979200E53343
:100AC800453424FF9201120E1AEF4E603ED2A00563
:100AD800357D107F30802130A03120A12EA2969242
:100AE80000E531453224FF9201120E1AEF4E601BC9
:100AF800D2A105367D107F31120D0A7F0A120DDA58
:100B08007F10120DB7120E37120E46A296E43375F7
:100B18003100F532A297E433753300F534208D03A4
:100B2800020A52C28D758CDCE4F58A0530C3E530C3
:100B3800648094E45003020A527B007A0079358B72
:100B48002D8A2E892F120B58E4F535F530020A52FA
:020E5400131475
:0C0DEA00E4FFE4FE0EBE21FC0FBF0AF681
:010DF60022DA
:020DDA00AD0763
:0D0DDC00E4FCECC39D5006120DEA0C80F5FE
:010DE90022E7
:050D2800120D2DAF05C6
:100D2D00C292E4FEEF339291C292D292EF25E0FF90
:040D3D000EBE08F0EE
:010D4100228F
:100D7500E4FFD292FED292C292EF25E0FFA293E465
:070D85003342070EBE08EE29
:010D8C002244
:100D8D00AD07C2907F06120D2DD290C2907F011239
:050D9D000D28D2902298
:100D0A00AC07C292C2907F06120D2DD290C2907F7C
:0E0D1A0002120D28AF04120D2DD290C29222AB
:020DB700AD0786
:100DB900C292C2907F03120D28120D75D290C29271
:010DC9002207
:070E4600D290C290D290226D
:100D4200758921758CDCE4F58AD28C758DFD758BE5
:0A0D5200FD7598505387EFD28E22F2
:080E37008F993099FDC2992248
:050E4D00D2AFD2AC227F
:03002300020C08C4
:100C0800C0E0C0F0C083C082C0D075D000C000C0B2
:0D0C180001C002C003C004C005C006C00733
:100C250078447C007D007BFF7A0E79547E007F023C
:100C35001208D0309805859943C298309902C29917
:0F0C45007D13AF43120D0A7F13120DB7120E3736
:100C5400D007D006D005D004D003D002D001D000F4
:0B0C6400D0D0D082D083D0F0D0E0329E
:10080000E709F608DFFA8046E709F208DFFA803EDA
:1008100088828C83E709F0A3DFFA8032E309F608C7
:10082000DFFA8078E309F208DFFA807088828C832F
:10083000E309F0A3DFFA806489828A83E0A3F608E3
:10084000DFFA805889828A83E0A3F208DFFA804CBD
:1008500080D280FA80C680D4806980F28033801094
:1008600080A680EA809A80A880DA80E280CA8033FD
:1008700089828A83ECFAE493A3C8C582C8CCC58375
:10088000CCF0A3C8C582C8CCC583CCDFE9DEE78045
:100890000D89828A83E493A3F608DFF9ECFAA9F0C4
:1008A000EDFB2289828A83ECFAE0A3C8C582C8CC1A
:1008B000C583CCF0A3C8C582C8CCC583CCDFEADE33
:1008C000E880DB89828A83E493A3F208DFF980CC95
:1008D00088F0EF60010E4E60C388F0ED2402B4048E
:1008E0000050B9F582EB2402B4040050AF23234535
:0608F00082239008507302
:1008F600BB010689828A83E0225002E722BBFE0200
:09090600E32289828A83E4932232
:10090F00E709F60870FA8046E709F20870FA803EA8
:10091F0088828C83E709F0A370FA807EE309F608DA
:10092F0070FA8076E309F20870FA806E88828C8301
:10093F00E309F0A370FA806289828A83E0A3F60844
:10094F0070FA805689828A83E0A3F20870FA804A8F
:10095F0080D280FA80C680D4806580F2803180108A
:10096F0080A680EA809A80A880DA80E280CA8031EF
:10097F0089828A83ECFAE493A3C8C582C8CCC58365
:10098F00CCF0A3C8C582C8CCC583CC70E9800D89D3
:10099F00828A83E493A3F60870F9ECFAA9F0EDFBD1
:1009AF002289828A83ECFAE0A3C8C582C8CCC583AA
:1009BF00CCF0A3C8C582C8CCC583CC70EA80DD89D2
:1009CF00828A83E493A3F20870F980CE88F0ED2435
:1009DF0002B4040050C4F582EB2402B4040050BAF0
:0909EF00232345822390095F7364
:100DA200E4FFFE1208F6600C0FEF70010E09E97005
:050DB200F20A80EF22AF
:00000001FF
