:03000000020CCC23
:0C0CCC00787FE4F6D8FD75814402080032
:0A0CE400E4FFFE3001042000010FC0
:010CEE0022E3
:0A0CEF00E4FFFE2001043000010FB5
:010CF90022D8
:020D1F002000B2
:0D0BC100C2918F807F64120BCED2927F2CE8
:100BCE00AD071FED600A7E64AD061EED60F280F883
:010BDE0022F4
:0A0CFA00C292C290120BC1C29222F6
:060C9F0014F9120952FFD6
:0A0CA500C292D290120BC1C292223B
:060A54008B3B8A3C893D4A
:100A5A008B408A418942120C77C3EF9410EE9400BE
:100A6A0050357F80120CFAE4F53EF53FAB3BAA3CC9
:100A7A00A93D120C77C3E53F9FE53E9E507BAB40F4
:100A8A000542E542AA4170020541120C9F053FE565
:100A9A003F70D9053E80D57F80120CFAE4F53EF509
:100AAA003FAB400542E542AA4170020541120C9F44
:100ABA00053FE53F7002053EC39410E53E6480940D
:100ACA008040DE7FC0120CFA753E00753F10AB3BCA
:100ADA00AA3CA93D120C77C3E53F9FE53E9E5019FB
:100AEA00AB400542E542AA4170020541120C9F053E
:090AFA003FE53F70D9053E80D5AF
:010B030022CF
:060B04008B088A09890A32
:100B0A007514FF75150D75161FA813AC12AD1112C9
:100B1A000A37A813AC12AD11AB14AA15A916120AFA
:100B2A0037A813AC12AD11AB0BAA0CA90D120A37D8
:100B3A00A813AC12AD11AB14AA15A916120A37A83C
:100B4A0013AC12AD11AB0EAA0FA910120A37AB11D2
:070B5A00AA12A913020A54BC
:03000300020BA14C
:100BA100C0E0C0D075D000C005C006C00720B205A6
:100BB1007F01120CFAD007D006D005D0D0D0E03298
:03000300020D21CA
:010D2100329F
:0C0CD80020003130730035730031300013
:100800007521FF75220C7523D87524FF75250C758D
:1008100026DA7527FF75280C7529DE752AFF752BDA
:100820000C752CE1E4F532F533753401F535753688
:1008300001F537F538F539753A0AD2A0D2A1D2A21E
:10084000D2A37F12120C627F0A120CAFD2B6120C26
:1008500031120C17120D13120D1AAF37EF3395E04A
:10086000FED3EF953AE5396480F8EE648098400550
:1008700030A202C2A2AF38EF3395E0FED3EF953A33
:10088000E5396480F8EE648098400530A302C2A385
:1008900030A03130A12EA2969200E533453424FFDA
:1008A0009201120CE4EF4E6004C2A08060A2979205
:1008B00000E535453624FF9201120CE4EF4E604D01
:1008C000C2A1804920A02030A11DA2979200E53549
:1008D000453624FF9201120CEFEF4E6030D2A00596
:1008E00037C2AC7F30802130A02320A120A2969275
:1008F00000E533453424FF9201120CEFEF4E600DFA
:10090000D2A10538C2AC7F31120D04D2ACA296E45C
:1009100033753300F534A297E433753500F536208E
:100920008D0302085AC28D758CDCE4F58A0532C34A
:10093000E532648094E4500302085A7B007A00791F
:10094000378B2F8A308931120A54E4F537F5320299
:02095000085A43
:0C0CBF00E4FFE4FE0EBE21FC0FBF0AF6AD
:010CCB002206
:020CAF00AD078F
:0D0CB100E4FCECC39D5006120CBF0C80F556
:010CBE002213
:050BFD00120C02AF051F
:100C0200C2B7E4FEEF3392B5C2B7D2B7EF25E0FF29
:040C12000EBE08F01A
:010C160022BB
:100C4A00E4FFD2B7FED2B7C2B7EF25E0FFA293E422
:070C5A003342070EBE08EE55
:010C61002270
:100C6200AD07C2B47F06120C02D2B4C2B47F011225
:050C72000BFDD2B422CD
:100BDF00AC07C2B7C2B47F06120C02D2B4C2B47F44
:0E0BEF0002120BFDAF04120C02D2B4C2B722E8
:020C8C00AD07B2
:100C8E00C2B7C2B47F03120BFD120C4AD2B4C2B764
:010C9E002233
:070D0C00D2B4C2B4D2B4223C
:080D04008F993099FDC299227C
:03002300020B616C
:100B6100C0E0C0D075D000C003C004C005C006C03D
:010B7100077C
:100B7200309804AB99C298309902C299AF037D10A4
:100B8200120BDF7F0A120CAF7F10120C8C120D04B5
:0F0B9200D007D006D005D004D003D0D0D0E032A9
:100C1700758921758CDCE4F58AD28C758DFD758B11
:0A0C2700FD7598505387EFD28E221E
:070D1300D2AFD2A8D2882262
:100C31007F38120CFA7F0C120CFA7F06120CFA7F25
:090C410001120CFA7F80020CFA8A
:050D1A00D2AFD2AC22B3
:10095200BB010689828A83E0225002E722BBFE02A3
:09096200E32289828A83E49322D6
:10096B00E709F60870FA8046E709F20870FA803E4C
:10097B0088828C83E709F0A370FA807EE309F6087E
:10098B0070FA8076E309F20870FA806E88828C83A5
:10099B00E309F0A370FA806289828A83E0A3F608E8
:1009AB0070FA805689828A83E0A3F20870FA804A33
:1009BB0080D280FA80C680D4806580F2803180102E
:1009CB0080A680EA809A80A880DA80E280CA803193
:1009DB0089828A83ECFAE493A3C8C582C8CCC58309
:1009EB00CCF0A3C8C582C8CCC583CC70E9800D8977
:1009FB00828A83E493A3F60870F9ECFAA9F0EDFB75
:100A0B002289828A83ECFAE0A3C8C582C8CCC5834D
:100A1B00CCF0A3C8C582C8CCC583CC70EA80DD8975
:100A2B00828A83E493A3F20870F980CE88F0ED24D8
:100A3B0002B4040050C4F582EB2402B4040050BA93
:090A4B0023234582239009BB73AB
:100C7700E4FFFE120952600C0FEF70010E09E970D4
:050C8700F20A80EF22DB
:00000001FF
