:0300000002151FC7
:0C151F00787FE4F6D8FD758122020DE80B
:0A153700E4FFFE3003042002010F60
:011541002287
:0A154200E4FFFE2003043002010F55
:01154C00227C
:101491007F381215587F0C1215587F061215587F88
:0914A100011215587F8002155854
:0D140200C2918F807F6412140FD2927F2C54
:10140F00AD071FED600A7E05AD061EED60F280F898
:01141F0022AA
:0A155800C292C290121402C2922245
:10142000900040E0FBA3E475F001120CCCA9F0FAA7
:04143000120C7DFF1E
:0A143400C292D290121402C292225A
:0B10D10090003BEBF0A3EAF0A3E9F075
:1010DC00900040EBF0A3EAF0A3E9F090003BE0FBBA
:1010EC00A3E0FAA3E0F91214D8C3EF9410EE940025
:1010FC00503D7F80121558E490003EF0A3F0900014
:10110C003BE0FBA3E0FAA3E0F91214D8C390003F34
:10111C00E09F90003EE09E40030211A51214209027
:10112C00003FE004F070D790003EE004F080CF7FE9
:10113C0080121558E490003EF0A3F0121420900099
:10114C003FE004F0700690003EE004F0C390003FD6
:10115C00E0941090003EE06480948040DE7FC012EA
:10116C00155890003EE4F0A37410F090003BE0FBA7
:10117C00A3E0FAA3E0F91214D8C390003FE09F90CB
:10118C00003EE09E501312142090003FE004F070DB
:09119C00DA90003EE004F080D27C
:0111A5002227
:10137000546F74616C20456E7472793A2533642021
:10138000546F74616C2045786974203A2533640089
:1013900054696D65205573656420203A25336420B7
:1013A0004D61783A2025386400546F74616C204593
:1013B0006E7472793A253364204D61783A2025386D
:1013C0006400546F74616C2045786974203A253349
:0B13D00064204D61783A20253864004D
:100FE6009000387401F0A37400F0A37467F0D2A4E3
:100FF600D2A5D2A6D2A7900089E0FEA3E0FFEE60BC
:10100600030210C3EF14603114605214607324039A
:1010160060030210C3C2A490003E74FFF0A37413D1
:10102600F0A37470F090008BE0FFA3E0900041CF36
:10103600F0A3EFF090008D806AC2A590003E74FF89
:10104600F0A37413F0A37490F0900091E0FFA3E076
:10105600900041CFF0A3EFF090008F8046C2A6909B
:10106600003E74FFF0A37413F0A374A9F090008BF4
:10107600E0FFA3E0900041CFF0A3EFF0900087805F
:1010860022C2A790003E74FFF0A37413F0A374C2AB
:10109600F090008DE0FFA3E0900041CFF0A3EFF0C9
:1010A600900087E0FFA3E0900043CFF0A3EFF0901D
:1010B6000038E0FBA3E0FAA3E0F9120865900038D7
:0B10C600E0FBA3E0FAA3E0F90210D168
:100DE800D200D201E4900000F0A3F0A3F0D2A0D288
:100DF800A1D2A2D2A3D2957F121214C37F0A1215D0
:100E080000D2B612149112147712154D1215697F7B
:100E18000A1215007F101214ED900001EFF07F0AFE
:100E28001215007F111214ED900002EFF0900001EE
:100E3800E0FC3395E090008FF0A3CCF0EF3395E021
:100E4800900087F0A3EFF0E4900091F0A3F09000F9
:100E58008BF0A3F0A3F0A3F0900089F0A3F0120F99
:100E6800E6E4FF7E20900067E4F0A3DEFC7E007FCE
:100E78000A1215007F101214ED900001EFF07F0A9E
:100E88001215007F111214ED900002EFF09000018E
:100E9800E0FD3395E0FC90008FF0A3EDF0EF339583
:100EA800E0900087F0A3EFF0C3900092E09DEC641F
:100EB80080F8900091E06480984003020F889000C9
:100EC80087E0FEA3E0FF90008CE09FEE6480F8903E
:100ED800008BE0648098400730A204C2A2C295D378
:100EE80090008EE09FEE6480F890008DE06480981A
:100EF800400730A304C2A2C29530A02930A126A27F
:100F0800969202A2009203121537EF4E6004C2A017
:100F18008066A2979202A2019203121537EF4E60E3
:100F280057C2A1805320A02630A123A2979202A2E3
:100F3800019203121542EF4E603ED2A090008CE061
:100F480004F0700690008BE004F07F30802730A01A
:100F58002720A124A2969202A2009203121542EF22
:100F68004E6015D2A190008EE004F0700690008DBE
:100F7800E004F07F3112152BA2969200A2979201FD
:100F8800208D03020E77C28D758CDCE4F58A900003
:100F980000E004F0E0FF75F064120C5B7003020ED1
:100FA80077EF75F064120C5BAFF0900000EFF090F3
:100FB800008FE0FEA3E0FFC3900092E09FEE648004
:100FC800F8900091E0648098500CA3E004F070065B
:0E0FD800900091E004F0B2A3120FE6020E7733
:030003000212EEF8
:1012EE00C0E0C0F0C083C082C0D075D000C000C0C6
:0D12FE0001C002C003C004C005C006C00747
:10130B0090002EE4F0A3F07B01A304F0A37400F093
:10131B00A37467F0C2A8C2AA20B22B7F0112155882
:10132B007E007F207D007B017A007967120CE290B2
:10133B00008BE4F0A3F0A3F0A3F07F0A121500904A
:0A134B000089E4F0A3F0D2A8D2AAB2
:10135500D007D006D005D004D003D002D001D000EC
:0B136500D0D0D082D083D0F0D0E03296
:0300130002125D79
:10125D00C0E0C0F0C083C082C0D075D000C000C057
:0D126D0001C002C003C004C005C006C007D8
:10127A009000337401F0A37400F0A37467F0C2A85D
:10128A00C2AA20B3407E007F207D007B017A00F94C
:10129A00120CE27F011215587F0A121500120FE68E
:1012AA0090008AE004F07006900089E004F0900053
:1012BA0089E0FEA3E0FF7C007D04120C9690008971
:0912CA00ECF0A3EDF0D2A8D2AAC9
:1012D300D007D006D005D004D003D002D001D0006F
:0B12E300D0D0D082D083D0F0D0E03219
:04156E000000101158
:0E151000E4FFE4FE0EEEB421FB0FEFB40AF48C
:01151E0022AA
:02150000AD0735
:0D150200E4FCECC39D50061215100C80F5A2
:01150F0022B9
:05145C00121461AF0550
:10146100C2B7E4FEEF3392B5C2B7D2B7EF25E0FFC2
:051471000EEEB408EFCF
:011476002253
:1014AA00E4FFD2B7FED2B7C2B7EF25E0FFA293E4BA
:0814BA00334FFF0EEEB408ED04
:0114C2002207
:1014C300AD07C2B47F06121461D2B4C2B47F011255
:0514D300145CD2B422FC
:10143E00AC07C2B7C2B47F06121461D2B4C2B47F75
:0E144E000212145CAF04121461D2B4C2B722B1
:0214ED00AD0749
:1014EF00C2B7C2B47F0312145C1214AAD2B4C2B72B
:0114FF0022CA
:07156200D2B4C2B4D2B422DE
:0C152B00C2AC8F993099FDC299D2AC225D
:030023000211A621
:1011A600C0E0C0F0C083C082C0D075D000C000C00F
:0D11B60001C002C003C004C005C006C00790
:1011C30078637C007D017BFF7A15796E7E007F0258
:1011D300120C3578657C007D017BFF7A1579707E72
:1011E300007F02120C35E4FBFA30980F74632BF581
:1011F3008274003AF583E599F0C29874632BF58203
:1012030074003AF583E0FF74652BF58274003AF5B8
:1012130083E0FD12143E7F0A12150074652BF582DC
:1012230074003AF583E0FF1214EDAE0712152B0B91
:0F123300BB00010AEB64024A70AF309902C29906
:10124200D007D006D005D004D003D002D001D00000
:0B125200D0D0D082D083D0F0D0E032AA
:10147700758921758CDCE4F58AD28C758DFD758BA9
:0A148700FD7598505387EFD28E22B6
:0B154D00D2AFD2A8D2AAD288D28A2244
:05156900D2AFD2AC225C
:100B6500E709F608DFFA8046E709F208DFFA803E72
:100B750088828C83E709F0A3DFFA8032E309F6085F
:100B8500DFFA8078E309F208DFFA807088828C83C7
:100B9500E309F0A3DFFA806489828A83E0A3F6087B
:100BA500DFFA805889828A83E0A3F208DFFA804C55
:100BB50080D280FA80C680D4806980F2803380102C
:100BC50080A680EA809A80A880DA80E280CA803395
:100BD50089828A83ECFAE493A3C8C582C8CCC5830D
:100BE500CCF0A3C8C582C8CCC583CCDFE9DEE780DD
:100BF5000D89828A83E493A3F608DFF9ECFAA9F05C
:100C0500EDFB2289828A83ECFAE0A3C8C582C8CCB1
:100C1500C583CCF0A3C8C582C8CCC583CCDFEADECA
:100C2500E880DB89828A83E493A3F208DFF980CC2C
:100C350088F0EF60010E4E60C388F0ED2402B40425
:100C45000050B9F582EB2402B4040050AF232345CC
:060C55008223900BB57331
:100C5B00C2D530F707B2D563F0FF05F030E70CB221
:100C6B00D5F4048463F0FF05F080018430D502F4E1
:020C7B00042251
:100C7D00BB010689828A83E0225002E722BBFE0275
:090C8D00E32289828A83E49322A8
:100C9600C2D5EC30E709B2D5E4C39DFDE49CFCEE79
:100CA60030E715B2D5E4C39FFFE49EFE120D4DC397
:100CB600E49DFDE49CFC8003120D4D30D507C3E492
:060CC6009FFFE49EFE22E8
:100CCC00A3F8E0C5F025F0F0E582158270021583DB
:060CDC00E0C838F0E82238
:10080000E50D243EF582E43400F583E0050D2290E9
:10081000003B30120390003EE475F001120DA2027D
:100820000C7D200BE97F2ED20B8018EF540F249003
:10083000D43440D4FF300F0BEF24BFB41A00500360
:100840002461FFE50E6002150E0511E51170020529
:100850001030120E90003BE475F001120DA2EF0271
:100860000D3B0213DB7403D2128003E4C212F50DB8
:1008700090003B120DB9E4F50EF510F511E50E6090
:10088000077F2012084380F5750FFFC20CC20BC210
:100890000DC20EC210C211C21312080FFF700D302C
:1008A00012057F00120854AF11AE1022B4255FC2AA
:1008B000D5C20F12080FFF24D0B40A00501A75F0E9
:1008C0000A780E30D50508B6FF0106C6A426F62024
:1008D000D5047002D20E80D924CFB41A00EF500490
:1008E000C2E5D20F020A55D20C80C6D20B80C0D20C
:1008F0000D80BCD2D580BAD21080B47F20120843BC
:10090000200D077401B50E0040F1120800FF120817
:100910004302087DD213D2118095120800FB120801
:1009200000FA120800F94A4B700679267A0B7BFF11
:10093000200D2EE50E602A7E008E82758300120D3A
:100940000E60060EEE650F70F0C2D5EBC0E0EAC097
:10095000E0E9C0E0EE120A9CD0E0F9D0E0FAD0E085
:10096000FB120C7DFF60AAEBC0E0EAC0E0E9C0E04A
:10097000120843D0E02401F9D0E03400FAD0E0FBC3
:10098000E50F0460DCD50FD980877BFF7A0A799860
:10099000D20D809C791080027908C211C2138008A0
:1009A000D2D5790A8004790AC2D5E50F047002F520
:1009B0000FE4FAFDFEFF120800FC7B08200C131266
:1009C0000800FD7B10300B0A120800FE120800FF21
:1009D0007B20EC3382D592D55013C3E4300B069FB5
:1009E000FFE49EFEE4200C039DFDE49CFCE4CBF8B8
:1009F000C20CEC700CCFCECDCCE824F8F870F380AC
:100A000017C3EF33FFEE33FEED33FDEC33FCEB3376
:100A1000FB994002FB0FD8E9EB300C05F8D0E0C49D
:100A200048B20CC0E00AEC4D4E4F78207B0070C2FB
:100A3000EAB50F0040BCC0E0120A9ED0F0D0E02022
:100A40000C04C4C0E0C4B20CC0F012082CD0F0D525
:100A5000F0EB02087D120DC2091A5309945808EBF5
:100A60004C08E74209984F09A04409A049090043EE
:080A700009A655098A46098A0E
:100A780045098A470B465008EF2D08F32E09162B17
:100A880008F7230914200B2F2A08AF480000090E85
:100A98003F3F3F00790AA2D5200E14301009B91043
:100AA800020404B9080104A2D5201102500104204F
:100AB8000D68920DB50E005034C0E07F20300E193D
:100AC8007F30A20D72117210500F120AF5C20DC2BA
:100AD80011C210C2137F30800F301003E9C0E0123A
:100AE8000843301003D0E0F9D0E0B50ECC30101731
:100AF8007F30B9100C1208437F58300F077F788079
:100B080003B90803120843300D057F2D0208437FFF
:100B1800202013F87F2B2011F322920D80CF286E0E
:100B2800756C6C2900D20C120800300CF8C20C78D5
:100B38000E30D50108F60208AF2D50434958120867
:100B4800002403B405004001E4900B4193120834DB
:0D0B5800743A120834D20E750E040209948E
:1014D800E4FFFE120C7D600C0FEF70010E09E9703D
:0514E800F20A80EF2272
:100CE200EF4E6012EF60010EEDBB010B89828A8329
:100CF200F0A3DFFCDEFA2289F05007F709DFFCA936
:0C0D0200F022BBFEFCF309DFFCA9F0228C
:100D0E00BB010CE58229F582E5833AF583E022509A
:100D1E0006E92582F8E622BBFE06E92582F8E222E4
:0D0D2E00E58229F582E5833AF583E49322FE
:100D3B00BB010689828A83F0225002F722BBFE0197
:020D4B00F32291
:100D4D00BC000BBE0029EF8DF084FFADF022E4CC8A
:100D5D00F875F008EF2FFFEE33FEEC33FCEE9DEC53
:100D6D00984005FCEE9DFE0FD5F0E9E4CEFD22ED99
:100D7D00F8F5F0EE8420D21CFEADF075F008EF2FE3
:100D8D00FFED33FD4007985006D5F0F222C398FDD4
:050D9D000FD5F0EA2271
:100DA200F8E0FBA3A3E0F925F0F0E58215827002DA
:070DB2001583E0FA38F0227E
:090DB900EBF0A3EAF0A3E9F0223B
:100DC200D083D082F8E4937012740193700DA3A3C0
:100DD20093F8740193F5828883E4737402936860D4
:060DE200EFA3A3A380DFD4
:1013DB00EFB40A07740D1213E6740A309811A8992A
:1013EB00B8130CC2983098FDA899C298B811F63072
:0713FB0099FDC299F599224A
:00000001FF
