:03000000020A04ED
:0C0A0400787FE4F6D8FD758120020A44DA
:0C0A1000758901758CDCE4F58AD28C221B
:0A0A1C00E4FFFE3001042000010F8A
:010A260022AD
:0A0A2700E4FFFE2001043000010F7F
:010A310022A2
:080A3C008E1A8F1BE4FEFF225D
:1009AD007F38120A327F0C120A327F06120A327F0A
:0909BD0001120A327F80020A32A5
:0D098F00C2918F807F6412099CD2927F2C50
:10099C00AD071FED600A7E64AD061EED60F280F8B7
:0109AC002228
:0A0A3200C292C29012098FC29222F4
:0609F40014F91209C6FF10
:0A09FA00C292D29012098FC292221D
:0608DF008B128A1389143C
:1008E5008B178A1889191209DFC3EF9410EE94004B
:1008F50050357F80120A32E4F515F516AB12AA13AE
:10090500A9141209DFC3E5169FE5159E507BAB17A9
:100915000519E519AA18700205181209F40516E556
:100925001670D9051580D57F80120A32E4F515F5C4
:1009350016AB170519E519AA18700205181209F45E
:100945000516E51670020515C39410E51564809427
:100955008040DE7FC0120A32751500751610AB1285
:10096500AA13A9141209DFC3E5169FE5159E5019B0
:10097500AB170519E519AA18700205181209F4052F
:0909850016E51670D9051580D5A0
:01098E002246
:10080000750800750901750A00750B01E4F50CF512
:100810000DF50EF50FF51075110AD2A0D2A1D2A2D6
:10082000D2A3D3E50D9511E5106480F8E50C648042
:1008300098400530A202C2A2D3E50F9511E51064DD
:1008400080F8E50E648098400530A302C2A330A072
:100850003130A12EA2909200E508450924FF9201B3
:10086000120A1CEF4E6004C2A0805FA2919200E5C4
:100870000A450B24FF9201120A1CEF4E604CC2A1E4
:10088000804820A02230A11FA2919200E50A450BCA
:1008900024FF9201120A27EF4E602FD2A0050DE52A
:1008A0000D7027050C802330A02020A11DA290925E
:1008B00000E508450924FF9201120A27EF4E600A5D
:1008C000D2A1050FE50F7002050EA290E433750862
:0F08D00000F509A291E433750A00F50B02082226
:030A4400020800A5
:1009C600BB010689828A83E0225002E722BBFE022F
:0909D600E32289828A83E4932262
:1009DF00E4FFFE1209C6600C0FEF70010E09E970FB
:0509EF00F20A80EF2276
:00000001FF
