:030000000208B043
:0C08B000787FE4F6D8FD7581120208F78D
:10095A007F381209CA7F0C1209CA7F061209CA7F98
:09096A00011209CA7F800209CACA
:0D093C00C2918F807F64120949D2927F2CF6
:10094900AD071FED600A7E64AD061EED60F280F80A
:01095900227B
:0A09CA00C292C29012093CC29222B0
:0609A10014F9120973FFB6
:0A09A700C292D29012093CC29222C3
:060800008B088A09890A39
:100806008B0D8A0E890F12098CC3EF9410EE94009B
:1008160050357F801209CAE4F50BF50CAB08AA091E
:10082600A90A12098CC3E50C9FE50B9E507BAB0D04
:10083600050FE50FAA0E7002050E1209A1050CE5BB
:100846000C70D9050B80D57F801209CAE4F50BF52B
:100856000CAB0D050FE50FAA0E7002050E1209A1CD
:10086600050CE50C7002050BC39410E50B6480942F
:100876008040DE7FC01209CA750B00750C10AB08EC
:10088600AA09A90A12098CC3E50C9FE50B9E50190B
:10089600AB0D050FE50FAA0E7002050E1209A10594
:0908A6000CE50C70D9050B80D59E
:0108AF002226
:0B09BF0068656C6C6F776F726C6400F1
:0509D4000310FF09BF44
:0E09B10012095AAB10AA11A91212080080F503
:1008BC000209B1E493A3F8E493A34003F68001F298
:1008CC0008DFF48029E493A3F85407240CC8C3333D
:1008DC00C4540F4420C8834004F456800146F6DF0C
:1008EC00E4800B01020408102040809009D4E47EBF
:1008FC00019360BCA3FF543F30E509541FFEE49301
:10090C00A360010ECF54C025E060A840B8E493A3C7
:10091C00FAE493A3F8E493A3C8C582C8CAC583CAF2
:10092C00F0A3C8C582C8CAC583CADFE9DEE780BEAA
:0109D900001D
:10097300BB010689828A83E0225002E722BBFE0282
:09098300E32289828A83E49322B5
:10098C00E4FFFE120973600C0FEF70010E09E970A1
:05099C00F20A80EF22C9
:00000001FF
