:030000000208747F
:0C087400787FE4F6D8FD75810D020800C5
:10080000E4F508F509F50AF50BF50CF50D1208806D
:10081000D2A0D2A1D2A2D3E50B940AE50A648094B7
:10082000804002C2A1E5094508701420921BF5081A
:10083000750901B2A0050BE50B700E050A800A30A0
:100840009207E4F508F509B2A0308DCAC28D758C07
:10085000DCE4F58A050DE50D7002050CC394E8E5AE
:100860000C6480948340AFC2A2E4F50AF50BF50C4A
:04087000F50D80A260
:0C088000758901758CDCE4F58AD28C22AD
:00000001FF
